:020000040000FA
:1000000000000228E930FE000130FF0080300000CF
:10001000000039210000000083120000A1007F08C9
:10002000A000EB30A2000130A300831200002008E2
:10003000A4002108A500FF30A007031CA103250888
:10004000240403199A2804302207A400A501A50D51
:100050002308A5072408FE002508FF0080300000C3
:10006000000039210000000083120000A7007F0873
:10007000A6002208FE002308FF00803000000000D8
:1000800039210000000083120000A900A5007F08AC
:10009000A400A80002302207A400A501A50D230892
:1000A000A5072408FE002508FF008030000000009E
:1000B00039210000000083120000A500AB007F087A
:1000C000AA00A400831200002608AA002708AB009B
:1000D000FF30A607031CA7032B082A040319932843
:1000E0002808FE002908FF008030000000002621BB
:1000F0000000000083120000AA00240883120313EA
:100100008400831383120000251883172A088312A2
:100110000313800083120000A80A0319A90AA40A85
:100120000319A50A6228063083120000A2070318EB
:10013000A30A152800000000D52908008316A20094
:100140007F08A100A301A401831622082402031D35
:10015000AB28210823020318EB288316A501A6016A
:1001600083162508A7002608A80004302802031DCE
:10017000BB28FB3027020318E628831638088316AD
:10018000AA00A900A801AB0127082A06A90000308F
:100190002B06AC002908A7008316B800390883167F
:1001A000AA00A7002408A900A901AB012308A80000
:1001B0002A06A70000302B06AC002708A8008316EB
:1001C000B9008316A50A0319A60AB0288316A30A44
:1001D0000319A40AA42808008316A00001302002F5
:1001E000031C1D290730200203181D29A00301301C
:1001F00083128A00023083162007031C0129831210
:100200008A0A820008290B290E29122916291A297F
:10021000831285141D29831205141D2903308312AE
:1002200085001D290530831285001D2907308312A2
:1002300085001D29153083128500C830FF0000306D
:100240009E2083128501051085100800003A0319CD
:100250002D29803A0319342900347E088400831341
:100260007F188317000808007F088A007E08820034
:100270000800003A03194129803A03194B29FF016C
:1002800000347E08840083137F1883170008FF0062
:10029000840A00080800000000003421FD00FE0F61
:1002A000FF03FF0A000000003421FC007D08FF006E
:1002B0007C0808008316B100AF00AD007F087E08FF
:1002C000B000AE003008B01B6E29003C031976293F
:1002D0008316B10D013E031C68297629031083168D
:1002E000B11B0314B10C013E031C6E2983162E08AA
:1002F000AF00083CAE002D08AF002E08003C0319EB
:1003000086298316AF0C013E031C81298316310810
:10031000AD002F04B1000800831638088316B20020
:10032000831639088316B3003207B4003208B306C7
:100330000630FE000030FF0032085A218316B2005A
:100340003308B2063308B5000310350DB500B20608
:1003500032088316B8000330FE000030FF00831619
:1003600033085A218316B2008316B9008316340865
:1003700008008C218316B600B7010030803E803E15
:10038000031DC42901303602031CB929831637081E
:10039000803E803E031DCE29073036020318B9295E
:1003A00083163608FF0037080800203083168500C2
:1003B000831285018312851EE529B9217F08EC206F
:1003C0006430FF0000309E20DA2983128501DA298B
:1003D000080002340034F7340134B83400340234F5
:1003E0000034F9340134BA340034013400340034B8
:0403F000A3340034FE
:02400E00F73F7A
:00000001FF
